{
  "address": "0x5FbDB2315678afecb367f032d93F642f64180aa3",
  "abi": [
    {
      "inputs": [],
      "name": "Marketplace__Address_notApproved",
      "type": "error"
    },
    {
      "inputs": [
        {
          "internalType": "address",
          "name": "nftAddress",
          "type": "address"
        },
        {
          "internalType": "uint256",
          "name": "tokenId",
          "type": "uint256"
        }
      ],
      "name": "Marketplace__NftAlreadylisted",
      "type": "error"
    },
    {
      "inputs": [],
      "name": "Marketplace__Only_NftListed",
      "type": "error"
    },
    {
      "inputs": [],
      "name": "Marketplace__PriceNotmet",
      "type": "error"
    },
    {
      "inputs": [],
      "name": "Marketplace__PriceShouldbeGreaterThanZero",
      "type": "error"
    },
    {
      "inputs": [],
      "name": "Marketplace__isnotListed",
      "type": "error"
    },
    {
      "inputs": [],
      "name": "Marketplace__noProceeds",
      "type": "error"
    },
    {
      "inputs": [],
      "name": "TransactionReverted",
      "type": "error"
    },
    {
      "anonymous": false,
      "inputs": [
        {
          "indexed": true,
          "internalType": "address",
          "name": "nftcontractaddress",
          "type": "address"
        },
        {
          "indexed": true,
          "internalType": "address",
          "name": "soldto",
          "type": "address"
        },
        {
          "indexed": true,
          "internalType": "uint256",
          "name": "tokenId",
          "type": "uint256"
        },
        {
          "indexed": false,
          "internalType": "uint256",
          "name": "price",
          "type": "uint256"
        }
      ],
      "name": "Itembought",
      "type": "event"
    },
    {
      "anonymous": false,
      "inputs": [
        {
          "indexed": true,
          "internalType": "address",
          "name": "seller",
          "type": "address"
        },
        {
          "indexed": true,
          "internalType": "address",
          "name": "nftcontractaddress",
          "type": "address"
        },
        {
          "indexed": false,
          "internalType": "uint256",
          "name": "tokenId",
          "type": "uint256"
        }
      ],
      "name": "Itemcancelled",
      "type": "event"
    },
    {
      "anonymous": false,
      "inputs": [
        {
          "indexed": true,
          "internalType": "address",
          "name": "seller",
          "type": "address"
        },
        {
          "indexed": true,
          "internalType": "address",
          "name": "nftAddress",
          "type": "address"
        },
        {
          "indexed": true,
          "internalType": "uint256",
          "name": "tokenId",
          "type": "uint256"
        },
        {
          "indexed": false,
          "internalType": "uint256",
          "name": "price",
          "type": "uint256"
        }
      ],
      "name": "Itemlisted",
      "type": "event"
    },
    {
      "anonymous": false,
      "inputs": [
        {
          "indexed": true,
          "internalType": "address",
          "name": "nftcontractaddress",
          "type": "address"
        },
        {
          "indexed": true,
          "internalType": "uint256",
          "name": "tokenId",
          "type": "uint256"
        },
        {
          "indexed": true,
          "internalType": "uint256",
          "name": "newprice",
          "type": "uint256"
        }
      ],
      "name": "ListingUpdated",
      "type": "event"
    },
    {
      "inputs": [
        {
          "internalType": "address",
          "name": "nftcontractAddress",
          "type": "address"
        },
        {
          "internalType": "uint256",
          "name": "tokenId",
          "type": "uint256"
        }
      ],
      "name": "BuyNfts",
      "outputs": [],
      "stateMutability": "payable",
      "type": "function"
    },
    {
      "inputs": [
        {
          "internalType": "address",
          "name": "nftcontractaddress",
          "type": "address"
        },
        {
          "internalType": "uint256",
          "name": "tokenId",
          "type": "uint256"
        }
      ],
      "name": "Cancelisting",
      "outputs": [],
      "stateMutability": "nonpayable",
      "type": "function"
    },
    {
      "inputs": [
        {
          "internalType": "address",
          "name": "sender",
          "type": "address"
        }
      ],
      "name": "GetProceeds",
      "outputs": [
        {
          "internalType": "uint256",
          "name": "",
          "type": "uint256"
        }
      ],
      "stateMutability": "view",
      "type": "function"
    },
    {
      "inputs": [
        {
          "internalType": "address",
          "name": "nftcontractaddress",
          "type": "address"
        },
        {
          "internalType": "uint256",
          "name": "tokenId",
          "type": "uint256"
        }
      ],
      "name": "Getlisting",
      "outputs": [
        {
          "components": [
            {
              "internalType": "uint256",
              "name": "price",
              "type": "uint256"
            },
            {
              "internalType": "address",
              "name": "seller",
              "type": "address"
            }
          ],
          "internalType": "struct Marketplace.Listing",
          "name": "",
          "type": "tuple"
        }
      ],
      "stateMutability": "view",
      "type": "function"
    },
    {
      "inputs": [
        {
          "internalType": "address",
          "name": "NftcontractAddress",
          "type": "address"
        },
        {
          "internalType": "uint256",
          "name": "tokenID",
          "type": "uint256"
        },
        {
          "internalType": "uint256",
          "name": "Price",
          "type": "uint256"
        }
      ],
      "name": "ListNfts",
      "outputs": [],
      "stateMutability": "nonpayable",
      "type": "function"
    },
    {
      "inputs": [
        {
          "internalType": "address",
          "name": "nftcontractaddress",
          "type": "address"
        },
        {
          "internalType": "uint256",
          "name": "tokenId",
          "type": "uint256"
        },
        {
          "internalType": "uint256",
          "name": "newlistingPrice",
          "type": "uint256"
        }
      ],
      "name": "UpdateListing",
      "outputs": [],
      "stateMutability": "nonpayable",
      "type": "function"
    },
    {
      "inputs": [],
      "name": "withdrawProcess",
      "outputs": [],
      "stateMutability": "nonpayable",
      "type": "function"
    }
  ],
  "transactionHash": "0x93da13b94058a3317e3cdd1ee272a31d254adb6dfaac1bc88a6365f4127af3f7",
  "args": [],
  "numDeployments": 1,
  "solcInputHash": "b02486d131961a1bf1a69ea5d0a1ce64",
  "bytecode": "0x608060405234801561001057600080fd5b506001600081905550611513806100286000396000f3fe6080604052600436106100705760003560e01c806399e265961161004e57806399e26596146100e55780639bc221921461010e578063b9dfd5aa14610137578063d867ec0d1461016057610070565b80630e8ea80f146100755780632f5515561461009157806362b50a9f146100ce575b600080fd5b61008f600480360381019061008a9190611192565b61019d565b005b34801561009d57600080fd5b506100b860048036038101906100b39190611192565b610530565b6040516100c5919061121f565b60405180910390f35b3480156100da57600080fd5b506100e36105fb565b005b3480156100f157600080fd5b5061010c6004803603810190610107919061123a565b610765565b005b34801561011a57600080fd5b5061013560048036038101906101309190611192565b61099b565b005b34801561014357600080fd5b5061015e6004803603810190610159919061123a565b610c1a565b005b34801561016c57600080fd5b506101876004803603810190610182919061128d565b611026565b60405161019491906112c9565b60405180910390f35b81816000600160008473ffffffffffffffffffffffffffffffffffffffff1673ffffffffffffffffffffffffffffffffffffffff168152602001908152602001600020600083815260200190815260200160002090506000816000015411610231576040517fe0bb423d00000000000000000000000000000000000000000000000000000000815260040160405180910390fd5b61023961106f565b6000600160008773ffffffffffffffffffffffffffffffffffffffff1673ffffffffffffffffffffffffffffffffffffffff1681526020019081526020016000206000868152602001908152602001600020905034816000015411156102cb576040517fbe92210300000000000000000000000000000000000000000000000000000000815260040160405180910390fd5b34600260008360010160009054906101000a900473ffffffffffffffffffffffffffffffffffffffff1673ffffffffffffffffffffffffffffffffffffffff1673ffffffffffffffffffffffffffffffffffffffff1681526020019081526020016000205461033a9190611313565b600260008360010160009054906101000a900473ffffffffffffffffffffffffffffffffffffffff1673ffffffffffffffffffffffffffffffffffffffff1673ffffffffffffffffffffffffffffffffffffffff16815260200190815260200160002081905550600160008773ffffffffffffffffffffffffffffffffffffffff1673ffffffffffffffffffffffffffffffffffffffff16815260200190815260200160002060008681526020019081526020016000206000808201600090556001820160006101000a81549073ffffffffffffffffffffffffffffffffffffffff021916905550508573ffffffffffffffffffffffffffffffffffffffff166342842e0e8260010160009054906101000a900473ffffffffffffffffffffffffffffffffffffffff1633886040518463ffffffff1660e01b815260040161048493929190611378565b600060405180830381600087803b15801561049e57600080fd5b505af11580156104b2573d6000803e3d6000fd5b50505050843373ffffffffffffffffffffffffffffffffffffffff168773ffffffffffffffffffffffffffffffffffffffff167f26579274b49c225fca76757e70b34bf8a22a2a82ca63bac8396b29e5c2dfd923846000015460405161051891906112c9565b60405180910390a4506105296110bf565b5050505050565b6105386110c9565b600160008473ffffffffffffffffffffffffffffffffffffffff1673ffffffffffffffffffffffffffffffffffffffff1681526020019081526020016000206000838152602001908152602001600020604051806040016040529081600082015481526020016001820160009054906101000a900473ffffffffffffffffffffffffffffffffffffffff1673ffffffffffffffffffffffffffffffffffffffff1673ffffffffffffffffffffffffffffffffffffffff1681525050905092915050565b6000600260003373ffffffffffffffffffffffffffffffffffffffff1673ffffffffffffffffffffffffffffffffffffffff16815260200190815260200160002054905060008111610679576040517f6d249d6f00000000000000000000000000000000000000000000000000000000815260040160405180910390fd5b6000600260003373ffffffffffffffffffffffffffffffffffffffff1673ffffffffffffffffffffffffffffffffffffffff1681526020019081526020016000208190555060003373ffffffffffffffffffffffffffffffffffffffff16826040516106e4906113e0565b60006040518083038185875af1925050503d8060008114610721576040519150601f19603f3d011682016040523d82523d6000602084013e610726565b606091505b5050905080610761576040517f9167c27a00000000000000000000000000000000000000000000000000000000815260040160405180910390fd5b5050565b8282600082905060008173ffffffffffffffffffffffffffffffffffffffff16636352211e846040518263ffffffff1660e01b81526004016107a791906112c9565b60206040518083038186803b1580156107bf57600080fd5b505afa1580156107d3573d6000803e3d6000fd5b505050506040513d601f19601f820116820180604052508101906107f7919061140a565b90503373ffffffffffffffffffffffffffffffffffffffff168173ffffffffffffffffffffffffffffffffffffffff161461085e576040517f7408a38300000000000000000000000000000000000000000000000000000000815260040160405180910390fd5b86866000600160008473ffffffffffffffffffffffffffffffffffffffff1673ffffffffffffffffffffffffffffffffffffffff1681526020019081526020016000206000838152602001908152602001600020905060008160000154116108f2576040517fe0bb423d00000000000000000000000000000000000000000000000000000000815260040160405180910390fd5b87600160008c73ffffffffffffffffffffffffffffffffffffffff1673ffffffffffffffffffffffffffffffffffffffff16815260200190815260200160002060008b81526020019081526020016000206000018190555087898b73ffffffffffffffffffffffffffffffffffffffff167f3e11d82182e9689c0f7ffc3ce2a4a057e1fc080032c0dcce9c269258c874a86c60405160405180910390a450505050505050505050565b8181600082905060008173ffffffffffffffffffffffffffffffffffffffff16636352211e846040518263ffffffff1660e01b81526004016109dd91906112c9565b60206040518083038186803b1580156109f557600080fd5b505afa158015610a09573d6000803e3d6000fd5b505050506040513d601f19601f82011682018060405250810190610a2d919061140a565b90503373ffffffffffffffffffffffffffffffffffffffff168173ffffffffffffffffffffffffffffffffffffffff1614610a94576040517f7408a38300000000000000000000000000000000000000000000000000000000815260040160405180910390fd5b85856000600160008473ffffffffffffffffffffffffffffffffffffffff1673ffffffffffffffffffffffffffffffffffffffff168152602001908152602001600020600083815260200190815260200160002090506000816000015411610b28576040517fe0bb423d00000000000000000000000000000000000000000000000000000000815260040160405180910390fd5b600160008a73ffffffffffffffffffffffffffffffffffffffff1673ffffffffffffffffffffffffffffffffffffffff16815260200190815260200160002060008981526020019081526020016000206000808201600090556001820160006101000a81549073ffffffffffffffffffffffffffffffffffffffff021916905550508873ffffffffffffffffffffffffffffffffffffffff163373ffffffffffffffffffffffffffffffffffffffff167fc24cc01cdbb0c2fcf310af07eafffaa9984dbdb4c5ddfbfa41da23e99f5da3e78a604051610c0791906112c9565b60405180910390a3505050505050505050565b8233836000600160008573ffffffffffffffffffffffffffffffffffffffff1673ffffffffffffffffffffffffffffffffffffffff16815260200190815260200160002060008381526020019081526020016000209050600081600001541115610cbd5783826040517fde329653000000000000000000000000000000000000000000000000000000008152600401610cb4929190611437565b60405180910390fd5b8686600082905060008173ffffffffffffffffffffffffffffffffffffffff16636352211e846040518263ffffffff1660e01b8152600401610cff91906112c9565b60206040518083038186803b158015610d1757600080fd5b505afa158015610d2b573d6000803e3d6000fd5b505050506040513d601f19601f82011682018060405250810190610d4f919061140a565b90503373ffffffffffffffffffffffffffffffffffffffff168173ffffffffffffffffffffffffffffffffffffffff1614610db6576040517f7408a38300000000000000000000000000000000000000000000000000000000815260040160405180910390fd5b6000891415610df1576040517f2126445800000000000000000000000000000000000000000000000000000000815260040160405180910390fd5b60008b90503073ffffffffffffffffffffffffffffffffffffffff168173ffffffffffffffffffffffffffffffffffffffff1663081812fc8d6040518263ffffffff1660e01b8152600401610e4691906112c9565b60206040518083038186803b158015610e5e57600080fd5b505afa158015610e72573d6000803e3d6000fd5b505050506040513d601f19601f82011682018060405250810190610e96919061140a565b73ffffffffffffffffffffffffffffffffffffffff1614610ee3576040517fac5a57a000000000000000000000000000000000000000000000000000000000815260040160405180910390fd5b60405180604001604052808b81526020013373ffffffffffffffffffffffffffffffffffffffff16815250600160008e73ffffffffffffffffffffffffffffffffffffffff1673ffffffffffffffffffffffffffffffffffffffff16815260200190815260200160002060008d81526020019081526020016000206000820151816000015560208201518160010160006101000a81548173ffffffffffffffffffffffffffffffffffffffff021916908373ffffffffffffffffffffffffffffffffffffffff1602179055509050508a8c73ffffffffffffffffffffffffffffffffffffffff163373ffffffffffffffffffffffffffffffffffffffff167f8d93b0f2756dd174d03e0a0f31a06f28a92a8e95ef378aeeb5ddf8066040baab8d60405161101091906112c9565b60405180910390a4505050505050505050505050565b6000600260008373ffffffffffffffffffffffffffffffffffffffff1673ffffffffffffffffffffffffffffffffffffffff168152602001908152602001600020549050919050565b600260005414156110b5576040517f08c379a00000000000000000000000000000000000000000000000000000000081526004016110ac906114bd565b60405180910390fd5b6002600081905550565b6001600081905550565b604051806040016040528060008152602001600073ffffffffffffffffffffffffffffffffffffffff1681525090565b600080fd5b600073ffffffffffffffffffffffffffffffffffffffff82169050919050565b6000611129826110fe565b9050919050565b6111398161111e565b811461114457600080fd5b50565b60008135905061115681611130565b92915050565b6000819050919050565b61116f8161115c565b811461117a57600080fd5b50565b60008135905061118c81611166565b92915050565b600080604083850312156111a9576111a86110f9565b5b60006111b785828601611147565b92505060206111c88582860161117d565b9150509250929050565b6111db8161115c565b82525050565b6111ea8161111e565b82525050565b60408201600082015161120660008501826111d2565b50602082015161121960208501826111e1565b50505050565b600060408201905061123460008301846111f0565b92915050565b600080600060608486031215611253576112526110f9565b5b600061126186828701611147565b93505060206112728682870161117d565b92505060406112838682870161117d565b9150509250925092565b6000602082840312156112a3576112a26110f9565b5b60006112b184828501611147565b91505092915050565b6112c38161115c565b82525050565b60006020820190506112de60008301846112ba565b92915050565b7f4e487b7100000000000000000000000000000000000000000000000000000000600052601160045260246000fd5b600061131e8261115c565b91506113298361115c565b9250827fffffffffffffffffffffffffffffffffffffffffffffffffffffffffffffffff0382111561135e5761135d6112e4565b5b828201905092915050565b6113728161111e565b82525050565b600060608201905061138d6000830186611369565b61139a6020830185611369565b6113a760408301846112ba565b949350505050565b600081905092915050565b50565b60006113ca6000836113af565b91506113d5826113ba565b600082019050919050565b60006113eb826113bd565b9150819050919050565b60008151905061140481611130565b92915050565b6000602082840312156114205761141f6110f9565b5b600061142e848285016113f5565b91505092915050565b600060408201905061144c6000830185611369565b61145960208301846112ba565b9392505050565b600082825260208201905092915050565b7f5265656e7472616e637947756172643a207265656e7472616e742063616c6c00600082015250565b60006114a7601f83611460565b91506114b282611471565b602082019050919050565b600060208201905081810360008301526114d68161149a565b905091905056fea2646970667358221220f38714416fd6eebadf69dee10bc846188a4e460825ce2e7f39bc49fb9ff8c38264736f6c63430008090033",
  "devdoc": {
    "kind": "dev",
    "methods": {},
    "version": 1
  },
  "userdoc": {
    "kind": "user",
    "methods": {},
    "version": 1
  },
  "storageLayout": {
    "storage": [
      {
        "astId": 10,
        "contract": "contracts/Marketplace.sol:Marketplace",
        "label": "_status",
        "offset": 0,
        "slot": "0",
        "type": "t_uint256"
      },
      {
        "astId": 2625,
        "contract": "contracts/Marketplace.sol:Marketplace",
        "label": "s_listings",
        "offset": 0,
        "slot": "1",
        "type": "t_mapping(t_address,t_mapping(t_uint256,t_struct(Listing)2618_storage))"
      },
      {
        "astId": 2629,
        "contract": "contracts/Marketplace.sol:Marketplace",
        "label": "s_proceeds",
        "offset": 0,
        "slot": "2",
        "type": "t_mapping(t_address,t_uint256)"
      }
    ],
    "types": {
      "t_address": {
        "encoding": "inplace",
        "label": "address",
        "numberOfBytes": "20"
      },
      "t_mapping(t_address,t_mapping(t_uint256,t_struct(Listing)2618_storage))": {
        "encoding": "mapping",
        "key": "t_address",
        "label": "mapping(address => mapping(uint256 => struct Marketplace.Listing))",
        "numberOfBytes": "32",
        "value": "t_mapping(t_uint256,t_struct(Listing)2618_storage)"
      },
      "t_mapping(t_address,t_uint256)": {
        "encoding": "mapping",
        "key": "t_address",
        "label": "mapping(address => uint256)",
        "numberOfBytes": "32",
        "value": "t_uint256"
      },
      "t_mapping(t_uint256,t_struct(Listing)2618_storage)": {
        "encoding": "mapping",
        "key": "t_uint256",
        "label": "mapping(uint256 => struct Marketplace.Listing)",
        "numberOfBytes": "32",
        "value": "t_struct(Listing)2618_storage"
      },
      "t_struct(Listing)2618_storage": {
        "encoding": "inplace",
        "label": "struct Marketplace.Listing",
        "members": [
          {
            "astId": 2615,
            "contract": "contracts/Marketplace.sol:Marketplace",
            "label": "price",
            "offset": 0,
            "slot": "0",
            "type": "t_uint256"
          },
          {
            "astId": 2617,
            "contract": "contracts/Marketplace.sol:Marketplace",
            "label": "seller",
            "offset": 0,
            "slot": "1",
            "type": "t_address"
          }
        ],
        "numberOfBytes": "64"
      },
      "t_uint256": {
        "encoding": "inplace",
        "label": "uint256",
        "numberOfBytes": "32"
      }
    }
  }
}